:020000040800F2
:1000000070070020750100087D0100087F010008CD
:10001000810100088301000885010008000000003C
:100020000000000000000000000000008701000840
:1000300089010008000000008B0100088D01000804
:100040008F0100088F0100088F01000800000000E8
:10005000000000008F0100088F0100088F010008D8
:100060008F010008000000008F0100088F010008C8
:100070008F010008000000008F0100088F010008B8
:100080008F0100088F010008000000008F010008A8
:100090008F010008000000000000000000000000C8
:1000A0000000000000000000000000008F010008B8
:1000B0008F0100088F0100088F0100088F010008E0
:1000C00000F002F800F047F80AA090E8000C824423
:1000D0008344AAF10107DA4501D100F03CF8AFF200
:1000E000090EBAE80F0013F0010F18BFFB1A43F016
:1000F00001031847540F0000740F0000103A24BF8A
:1001000078C878C1FAD8520724BF30C830C144BF7C
:1001100004680C60704700000023002400250026BE
:10012000103A28BF78C1FBD8520728BF30C148BF5A
:100130000B607047732900F0BB80002070471FB52B
:100140009DE8030000F032FA00F018F91FBD10B569
:1001500000F07DF910BD00F0E7F91146FFF7EFFF61
:1001600000F03CFF00F02AFC03B4FFF7F0FF03BCF3
:1001700000F0F0FD0948804709480047FEE7FEE728
:10018000FEE7FEE7FEE7FEE7FEE7FEE7FEE7FEE747
:1001900004480549054A064B70470000510F000806
:1001A000C1000008700100207007002070030020CB
:1001B000700300200FB4044910B503AA029800F0A0
:1001C0007BF810BC5DF814FB640000202DE9F041C1
:1001D0000E460446002020622046E168884730B37E
:1001E000252805D0D4E901219047206A401CF2E778
:1001F000E168204600278847050018D0A5F1410096
:10020000192802D820354FF4006732462946204687
:100210002760FFF78FFF40B1012804D0F61D26F0BC
:1002200007060836D8E7361DD6E72846DAE7206AFB
:10023000BDE8F08170B50C460546012A05D0287846
:10024000800600D5EA69002302E0012305E05B1C7B
:10025000934202D2E05C0028F9D1A869E618C01ADE
:10026000A861286A184428622846AFF3008004E099
:10027000D5E9012114F8010B9047B442F8D3284680
:10028000AFF3008070BD70477047704710B5436989
:1002900013B1AFF3008001E0FFF7CCFF012010BDE8
:1002A000127800F124010A7000224A700122EDE761
:1002B00011684FF0FF32E9E7074B70B50D467B44FC
:1002C00000F045F80446284600F054F810B14FF00D
:1002D000FF3070BD204670BDFF0C00000048704725
:1002E0004001002070B5064600F044F9056806F1AB
:1002F0000B0020F00704B4429CBF002070BD2B46C9
:100300006A68BAB11068A04210D304F108018842AB
:100310003CBF5068586007D351681019416011689C
:10032000091B016058601460101D70BD13465268AF
:10033000002AE7D12146284600F024F90028DED122
:1003400070BD000001694A1C02610878704700B561
:100350008FB0CDE901310021059105497944CDE9FE
:10036000031011466846FFF731FF0FB000BD0000D3
:10037000E5FFFFFF007B00F08000704710B54248AA
:10038000542100F02BFB4148542100F027FB40484A
:10039000542100F023FB3F493B483C4A3F4B086057
:1003A0003D490A603A491960531C0365481C1065B1
:1003B000012008653B48344A39A1784400F062FACC
:1003C00020B9384878440A3800F001FB37482F4AF2
:1003D00035A1784400F056FA20B9344878440A38F8
:1003E00000F0F5FA32482A4A2FA1784400F04AFA80
:1003F00020B92F4878440A3800F0E9FA402322480F
:10040000DC000021224600F019FA20B1254878448A
:10041000543800F0DCFA1D4822464023002100F049
:100420000DFA20B121487844543800F0D0FA184829
:1004300022461023002100F001FA002806D01C48B3
:100440007844BDE81040563800F0C1BA10BD1048DD
:1004500070B5006D20F001040B4800F089FA0B48DC
:1004600000F086FA0A4800F083FA09E0206D20F0D7
:100470000105204600F07CFA204600F0CDF82C461D
:10048000002CF3D170BD000010000020640000209B
:10049000B800002004000020080000200C0000200C
:1004A000720000007E0C0000770000006A0C000063
:1004B000560C000000F0B9BA0EB5CDE9000100F00D
:1004C00002FC029069460120ABBE0EBD08B569462C
:1004D00000900220ABBE08BD1FB58DE8070069463D
:1004E0000520ABBE04B010BD1FB58DE80F006946F6
:1004F0000620ABBEF6E708B5694600900920ABBE02
:1005000008BD1CB5CDE9000169460A20ABBE1CBD83
:10051000704708B5694600900C20ABBE08BD0000CE
:10052000004870470C0100207546FFF7F9FFAE4602
:1005300005006946534620F00700854618B020B5EF
:10054000FFF726FEBDE820404FF000064FF0000701
:100550004FF000084FF0000B21F00701AC46ACE86B
:10056000C009ACE8C009ACE8C009ACE8C0098D46D8
:100570007047000000487047140100207047704722
:100580007047704738B504460A4600206946AFF305
:100590000080002808BF38BD02460099204600F0C0
:1005A00052FA012038BD012000F086BBF8B5AFF348
:1005B0000080054600200C46102000BF0646A81902
:1005C000A0420DD9324669460020AFF300800700F3
:1005D00008BF00F071FB0098A04218BF0546C4197F
:1005E000FFF7C8FF05600746F01D20F00700461919
:1005F000284600F00AF8B44208BFF8BDA21B3146F5
:100600003868BDE8F84000F01EBA00210160C0E97A
:10061000011070471020704770B50446051FFFF7A2
:10062000A9FF0068002C14BF446870BD002C18BFDF
:10063000AC423CBF20466468F8D301680A18AA425D
:1006400018BF456003D12A68054611440160286837
:100650004119A1421CBF6C6070BD6168696021686E
:100660000844286070BD2DE9F04705460C46C8686F
:1006700020F4201040F48000C860800602D50846AF
:1006800000F0CFFAE06841F282014FF0FF390140FB
:10069000022903D0204600F06DFAB5E000F42041B5
:1006A000B1F5004F0FD1C00306D56168E06A8842FA
:1006B00000D80846606006E02069E062606060691A
:1006C000FFF727FFA061A0680022EEB200280DDA34
:1006D000E1688B050AD4C043A06041F490302260E9
:1006E000E0606068411C61600670A5E0E0689046CB
:1006F000226040F40050E060206968BB6069FFF749
:10070000FAFE012704F12405A0B1A08910F4407F6E
:1007100008D0E069FFF7E6FD206118B1E06840F419
:10072000006016E0E7612561E06820F4407040F465
:1007300080600EE0E069FFF7D5FD00282061F1D070
:10074000E06840F4006010F4407FE06002D140F4C3
:100750008070E06020696060E06825696FF0010AE0
:10076000C1051FD56168E06A884200D80846411B70
:1007700004D02246284600F007FAF0BBE0680102E8
:1007800003D5E562C4E9015854E0691CE162616087
:10079000E16940F48030491EC4E9021030462E70F1
:1007A000BDE8F087010202D500F480320AE06068FB
:1007B000411C61600670E0680A2E40F48030E06001
:1007C00006D00022E16A6068814203D90B4602E04C
:1007D0000122F7E70346A7895B1B7F0503D4E7697E
:1007E0009F4200DDE2B1814200D80146E5620F1A66
:1007F000C4E90158002B09DD00E005E02246194656
:10080000284600F0C1F908B14846C9E747B1A069D8
:10081000E5626560C01BA061E06840F01000E06028
:10082000E068000208D56168A069E562491B0844D8
:100830006560A0615046B3E73046B1E770B5C46863
:10084000A50713D0650211D4B2F5807F09D0B2F5A7
:10085000007F06D0B2F5806F08D1012300F124019A
:1008600006E05D1E6FF07F46B54201D3012070BDEA
:100870000161C361416024F470611143C1600020D3
:1008800070BD00002DE9F0410C46074616461046A3
:1008900000F06EF82078611C61280AD0722802D01E
:1008A00077283CD102E00125002405E0022504243C
:1008B00002E0082448F2020511F8010B2B2806D0AB
:1008C000622809D011F8010C74280AD00BE045F019
:1008D000030544F00204EFE745F0040544F0010489
:1008E000EAE744F0100438462146FFF7E5FD411CD5
:1008F00015D00021316171604FF40071F560F16134
:100900007061200704D530460222002100F0B6F8BD
:10091000306D40F0010030653046BDE8F0810020C8
:10092000FBE72DE9F0410D460646104C206DC1074E
:1009300004D0410804D020F00104F7E722460EE07D
:100940005420FFF7CFFC07000ED0206D47F00101C7
:10095000084354212065384600F040F83A462946BD
:100960003046BDE8F0418DE70020D6E710000020BA
:100970002DE9F04704464FF000094FF0FF37C568F6
:10098000D4E90486A80707D0204600F027F93046AE
:10099000FFF79CFD002802DA3846BDE8F0872805FD
:1009A00002D54046FFF738FE4C21204600F016F8ED
:1009B000206D20F0010020654846EEE710B50446A2
:1009C000AFF300802046BDE81040FFF7CDBB10B567
:1009D00000F058F9BDE8104000F04FB94FF00002A8
:1009E00000B5134694469646203922BFA0E80C5025
:1009F000A0E80C50B1F12001BFF4F7AF090728BF00
:100A0000A0E80C5048BF0CC05DF804EB890028BF7B
:100A100040F8042B08BF704748BF20F8022B11F0A4
:100A2000804F18BF00F8012B704710B500F06DF92A
:100A3000016919B100220261884701E0806880479E
:100A400000F010F97047034640688C46002818BF34
:100A500088423CBF03464068F8D31868184488426F
:100A600007D00CF1030020F00700001D411A521AB4
:100A70000146081D0A60FFF7CFBD00002DE9F041D7
:100A8000044616460D464769007B80072ED038463F
:100A9000FFF731FD50BB3EB3012E02D0022E25D10F
:100AA00004E0204600F060F905441DE03846FFF7F9
:100AB00030FDE168002841F01001E16005DA2046D0
:100AC00000F058F80120BDE8F081C9030BD5626839
:100AD000E16A914200D81146A26911442269891A3B
:100AE000814200DD08460544002D01DA0220EAE7D4
:100AF000E16A6068E268814206D29103E06203D550
:100B000022F4003141F01002A6690027AE4213DC46
:100B1000E16A814201D90B4600E0034603EB060C73
:100B20002369ACEB030CAC4506DD814201D98C4650
:100B300000E084469C4505D1A760276042F0200074
:100B4000A5620DE0AD1BE669AE1B8142A66000D92F
:100B50000846C01A281A20605819606022F0200048
:100B600003490840E060002084F84870ABE70000CB
:100B7000BFCFD7FFC16821F4001141F08001C160EF
:100B800000218160016070472DE9F04781461446DD
:100B90000E464FF0FF383248D5685769054209D0F4
:100BA0003846A169FFF7ADFC002811DB2C48C04393
:100BB0000540E5602B46324649463846FFF78CFC37
:100BC000A16920F00042B21A11440028A16103D0AB
:100BD0002046FFF7CFFF4046BDE8F08770B50446DA
:100BE0000569C06A6168884200D80846E16821F456
:100BF0002011E160C90312D5A84208D02246411B4A
:100C00002846FFF7C1FF10B14FF0FF3070BD002044
:100C1000E562C4E90150E06820F48030E060002023
:100C200070BD10B50446C06820F02000E060A16AE5
:100C3000A06988420DD02046FFF7D0FFE06820F47D
:100C4000405040F01000E060A06AA0612069E062BE
:100C5000606044F24001E0688843E06010BD00003D
:100C60001000020010B5002000F0B8F8FFF76FFA8E
:100C7000BDE81040012000F06DB8002801D000F060
:100C800069B8704710B5014602A000F08EF8012047
:100C900010BD000053494752545245443A20526512
:100CA0006469726563743A2063616E2774206F70A3
:100CB000656E3A200000000010B500F097F8BDE81E
:100CC0001040FFF7DABF10B5431C02E010F8011B1B
:100CD00071B18107FAD14FF0013202C88C1A8C43EE
:100CE00014EAC211F9D0C01A0A0603D0C01E10BD02
:100CF000C01A10BD0A0401D0801E10BD0902FCD02C
:100D0000401E10BD10B5FFF7ADFF70B500F028F81C
:100D100004680546A4B92020FFF7E4FA040011D0C6
:100D2000094900202C60C4E900010849A160207332
:100D3000206160610649A06109B100F07FF8E061BF
:100D4000204670BDFFF78EFF00000000050D000873
:100D50000000000001491820ABBEFEE7260002009B
:100D6000004870474801002010B50146C26890074E
:100D700003D0900607D5886A0AE000F085F80121C3
:100D80000160881E10BD8B69486818440B69C01A41
:100D900091F848301BB191F84910401A10BD110369
:100DA000FCD50028FADD401E10BD70B505460C4686
:100DB0000A2000E06D1C00F05FF835B128780028AB
:100DC000F8D102E0641C00F057F814B12078002834
:100DD000F8D1BDE870400A2000F04EB810B500F020
:100DE00057F8BDE81040FFF748BF000010B50128D4
:100DF00005D0002103A0FFF7D8FF012010BD09A1F5
:100E0000F8E7000053494752544D454D3A204F757D
:100E100074206F662068656170206D656D6F7279F2
:100E2000000000003A2048656170206D656D6F72AA
:100E30007920636F727275707465640010B58820D4
:100E4000FFF750FA002801D00021017010BD802961
:100E500002D808B1017809B100207047012100F8DB
:100E6000081B704718B100F10802914201D0002020
:100E7000704700210170704708B569468DF8000081
:100E80000320ABBE08BD0000004870470C010020E5
:100E900010B5002102A0FFF788FF012010BD00005F
:100EA000534947414252543A2041626E6F726D611C
:100EB0006C207465726D696E6174696F6E000000FC
:100EC00030B5204CE46804F00204022C01D11E4825
:100ED00000E01D481B4CE46804F0010404B1400824
:100EE0000146184CE46804F00404042C05D1154CA8
:100EF0006468C4F30324631C5943124CE468C4F3CC
:100F0000012424B1012C06D0022C13D10DE00E4C8B
:100F10000E4D2C6013E00B4CE468C4F30314641C06
:100F2000B1FBF4F2094C226009E04FF40044074D94
:100F30002C6004E049F64044044D2C6000BF00BF23
:100F400030BD00000000024000127A0000000020C6
:100F500000B50D480D49C8610846C0680020C8604A
:100F60000846406800204860084680680020886085
:100F70000846006900200861084640690020486171
:100F8000FFF79EFF00BD00001000000800000240B7
:100F900010B500F001F810BD10B5040007D1012410
:100FA00005E0FFF79BF9006800B904488047204638
:100FB000FFF798F90028F4D010BD0000B504000830
:100FC0008A68002A01DCFFF74EBB521E8A604A681D
:100FD000C0B2531C4B601070704700007FB512A167
:100FE00003C9CDE9020112A103C9CDE900010E2513
:100FF0002846FFF7CDFF0446002003E002A9095C64
:101000002154401C0528F9D3002004E01DF80020DD
:10101000411D6254401C0828F8D3214606A0FFF762
:10102000C9F8002004B070BD48656C6C6F0000000A
:1010300020576F726C642100257300003A747400AD
:101040003A7474003A7474006810000800000020BC
:1010500010000000FC0000087810000810000020BC
:10106000600700001801000800127A00000000006C
:08107000000000000000000078
:040000050800017579
:00000001FF
